{
  "contractName": "QuidditchPlayer",
  "abi": [
    {
      "constant": true,
      "inputs": [
        {
          "name": "interfaceId",
          "type": "bytes4"
        }
      ],
      "name": "supportsInterface",
      "outputs": [
        {
          "name": "",
          "type": "bool"
        }
      ],
      "payable": false,
      "stateMutability": "view",
      "type": "function"
    },
    {
      "constant": true,
      "inputs": [],
      "name": "name",
      "outputs": [
        {
          "name": "",
          "type": "string"
        }
      ],
      "payable": false,
      "stateMutability": "view",
      "type": "function"
    },
    {
      "constant": true,
      "inputs": [
        {
          "name": "tokenId",
          "type": "uint256"
        }
      ],
      "name": "getApproved",
      "outputs": [
        {
          "name": "",
          "type": "address"
        }
      ],
      "payable": false,
      "stateMutability": "view",
      "type": "function"
    },
    {
      "constant": false,
      "inputs": [
        {
          "name": "to",
          "type": "address"
        },
        {
          "name": "tokenId",
          "type": "uint256"
        }
      ],
      "name": "approve",
      "outputs": [],
      "payable": false,
      "stateMutability": "nonpayable",
      "type": "function"
    },
    {
      "constant": true,
      "inputs": [],
      "name": "totalSupply",
      "outputs": [
        {
          "name": "",
          "type": "uint256"
        }
      ],
      "payable": false,
      "stateMutability": "view",
      "type": "function"
    },
    {
      "constant": false,
      "inputs": [
        {
          "name": "from",
          "type": "address"
        },
        {
          "name": "to",
          "type": "address"
        },
        {
          "name": "tokenId",
          "type": "uint256"
        }
      ],
      "name": "transferFrom",
      "outputs": [],
      "payable": false,
      "stateMutability": "nonpayable",
      "type": "function"
    },
    {
      "constant": true,
      "inputs": [
        {
          "name": "owner",
          "type": "address"
        },
        {
          "name": "index",
          "type": "uint256"
        }
      ],
      "name": "tokenOfOwnerByIndex",
      "outputs": [
        {
          "name": "",
          "type": "uint256"
        }
      ],
      "payable": false,
      "stateMutability": "view",
      "type": "function"
    },
    {
      "constant": false,
      "inputs": [
        {
          "name": "from",
          "type": "address"
        },
        {
          "name": "to",
          "type": "address"
        },
        {
          "name": "tokenId",
          "type": "uint256"
        }
      ],
      "name": "safeTransferFrom",
      "outputs": [],
      "payable": false,
      "stateMutability": "nonpayable",
      "type": "function"
    },
    {
      "constant": true,
      "inputs": [
        {
          "name": "index",
          "type": "uint256"
        }
      ],
      "name": "tokenByIndex",
      "outputs": [
        {
          "name": "",
          "type": "uint256"
        }
      ],
      "payable": false,
      "stateMutability": "view",
      "type": "function"
    },
    {
      "constant": true,
      "inputs": [
        {
          "name": "tokenId",
          "type": "uint256"
        }
      ],
      "name": "ownerOf",
      "outputs": [
        {
          "name": "",
          "type": "address"
        }
      ],
      "payable": false,
      "stateMutability": "view",
      "type": "function"
    },
    {
      "constant": true,
      "inputs": [],
      "name": "baseURI",
      "outputs": [
        {
          "name": "",
          "type": "string"
        }
      ],
      "payable": false,
      "stateMutability": "view",
      "type": "function"
    },
    {
      "constant": true,
      "inputs": [
        {
          "name": "",
          "type": "uint256"
        }
      ],
      "name": "playerIndexToUser",
      "outputs": [
        {
          "name": "",
          "type": "address"
        }
      ],
      "payable": false,
      "stateMutability": "view",
      "type": "function"
    },
    {
      "constant": true,
      "inputs": [
        {
          "name": "owner",
          "type": "address"
        }
      ],
      "name": "balanceOf",
      "outputs": [
        {
          "name": "",
          "type": "uint256"
        }
      ],
      "payable": false,
      "stateMutability": "view",
      "type": "function"
    },
    {
      "constant": true,
      "inputs": [],
      "name": "symbol",
      "outputs": [
        {
          "name": "",
          "type": "string"
        }
      ],
      "payable": false,
      "stateMutability": "view",
      "type": "function"
    },
    {
      "constant": true,
      "inputs": [],
      "name": "dappOwner",
      "outputs": [
        {
          "name": "",
          "type": "address"
        }
      ],
      "payable": false,
      "stateMutability": "view",
      "type": "function"
    },
    {
      "constant": false,
      "inputs": [
        {
          "name": "to",
          "type": "address"
        },
        {
          "name": "approved",
          "type": "bool"
        }
      ],
      "name": "setApprovalForAll",
      "outputs": [],
      "payable": false,
      "stateMutability": "nonpayable",
      "type": "function"
    },
    {
      "constant": true,
      "inputs": [],
      "name": "playersCount",
      "outputs": [
        {
          "name": "",
          "type": "uint256"
        }
      ],
      "payable": false,
      "stateMutability": "view",
      "type": "function"
    },
    {
      "constant": false,
      "inputs": [
        {
          "name": "from",
          "type": "address"
        },
        {
          "name": "to",
          "type": "address"
        },
        {
          "name": "tokenId",
          "type": "uint256"
        },
        {
          "name": "_data",
          "type": "bytes"
        }
      ],
      "name": "safeTransferFrom",
      "outputs": [],
      "payable": false,
      "stateMutability": "nonpayable",
      "type": "function"
    },
    {
      "constant": true,
      "inputs": [
        {
          "name": "tokenId",
          "type": "uint256"
        }
      ],
      "name": "tokenURI",
      "outputs": [
        {
          "name": "",
          "type": "string"
        }
      ],
      "payable": false,
      "stateMutability": "view",
      "type": "function"
    },
    {
      "constant": true,
      "inputs": [
        {
          "name": "owner",
          "type": "address"
        },
        {
          "name": "operator",
          "type": "address"
        }
      ],
      "name": "isApprovedForAll",
      "outputs": [
        {
          "name": "",
          "type": "bool"
        }
      ],
      "payable": false,
      "stateMutability": "view",
      "type": "function"
    },
    {
      "constant": true,
      "inputs": [
        {
          "name": "",
          "type": "uint256"
        }
      ],
      "name": "players",
      "outputs": [
        {
          "name": "name",
          "type": "string"
        },
        {
          "name": "team",
          "type": "string"
        },
        {
          "name": "position",
          "type": "string"
        },
        {
          "name": "cannon",
          "type": "bool"
        },
        {
          "name": "category",
          "type": "string"
        }
      ],
      "payable": false,
      "stateMutability": "view",
      "type": "function"
    },
    {
      "inputs": [],
      "payable": false,
      "stateMutability": "nonpayable",
      "type": "constructor"
    },
    {
      "anonymous": false,
      "inputs": [
        {
          "indexed": true,
          "name": "from",
          "type": "address"
        },
        {
          "indexed": true,
          "name": "to",
          "type": "address"
        },
        {
          "indexed": true,
          "name": "tokenId",
          "type": "uint256"
        }
      ],
      "name": "Transfer",
      "type": "event"
    },
    {
      "anonymous": false,
      "inputs": [
        {
          "indexed": true,
          "name": "owner",
          "type": "address"
        },
        {
          "indexed": true,
          "name": "approved",
          "type": "address"
        },
        {
          "indexed": true,
          "name": "tokenId",
          "type": "uint256"
        }
      ],
      "name": "Approval",
      "type": "event"
    },
    {
      "anonymous": false,
      "inputs": [
        {
          "indexed": true,
          "name": "owner",
          "type": "address"
        },
        {
          "indexed": true,
          "name": "operator",
          "type": "address"
        },
        {
          "indexed": false,
          "name": "approved",
          "type": "bool"
        }
      ],
      "name": "ApprovalForAll",
      "type": "event"
    },
    {
      "constant": false,
      "inputs": [
        {
          "name": "_name",
          "type": "string"
        },
        {
          "name": "_team",
          "type": "string"
        },
        {
          "name": "_position",
          "type": "string"
        },
        {
          "name": "_cannon",
          "type": "bool"
        },
        {
          "name": "_category",
          "type": "string"
        }
      ],
      "name": "createPlayer",
      "outputs": [],
      "payable": false,
      "stateMutability": "nonpayable",
      "type": "function"
    },
    {
      "constant": false,
      "inputs": [
        {
          "name": "_playerId",
          "type": "uint256"
        }
      ],
      "name": "addPlayerToUser",
      "outputs": [],
      "payable": false,
      "stateMutability": "nonpayable",
      "type": "function"
    },
    {
      "constant": false,
      "inputs": [
        {
          "name": "_claimant",
          "type": "address"
        },
        {
          "name": "_playerId",
          "type": "uint256"
        }
      ],
      "name": "owns",
      "outputs": [
        {
          "name": "",
          "type": "bool"
        }
      ],
      "payable": false,
      "stateMutability": "nonpayable",
      "type": "function"
    },
    {
      "constant": false,
      "inputs": [
        {
          "name": "_playerId",
          "type": "uint256"
        }
      ],
      "name": "sellPlayer",
      "outputs": [],
      "payable": false,
      "stateMutability": "nonpayable",
      "type": "function"
    }
  ],
  "bytecode": "0x60806040523480156200001157600080fd5b506040518060400160405280600f81526020017f517569646469746368506c6179657200000000000000000000000000000000008152506040518060400160405280600281526020017f51500000000000000000000000000000000000000000000000000000000000008152508181620000986301ffc9a760e01b620005d360201b60201c565b620000b06380ac58cd60e01b620005d360201b60201c565b620000c863780e9d6360e01b620005d360201b60201c565b8160099080519060200190620000e09291906200082d565b5080600a9080519060200190620000f99291906200082d565b5062000112635b5e139f60e01b620005d360201b60201c565b5050505033600d60006101000a81548173ffffffffffffffffffffffffffffffffffffffff021916908373ffffffffffffffffffffffffffffffffffffffff160217905550620002416040518060400160405280600c81526020017f486172727920506f7474657200000000000000000000000000000000000000008152506040518060400160405280600a81526020017f4772796666696e646f72000000000000000000000000000000000000000000008152506040518060400160405280600681526020017f5365656b6572000000000000000000000000000000000000000000000000000081525060016040518060400160405280600881526020017f486f677761727473000000000000000000000000000000000000000000000000815250620006dc60201b60201c565b6200032b6040518060400160405280600f81526020017f526f6265727420477564657269616e00000000000000000000000000000000008152506040518060400160405280600681526020017f4269736f6e7300000000000000000000000000000000000000000000000000008152506040518060400160405280600681526020017f4b6565706572000000000000000000000000000000000000000000000000000081525060006040518060400160405280600f81526020017f43616e616469616e204c65616775650000000000000000000000000000000000815250620006dc60201b60201c565b620004156040518060400160405280600c81526020017f47696e6e7920506f7474657200000000000000000000000000000000000000008152506040518060400160405280601081526020017f486f6c79686561642048617270696573000000000000000000000000000000008152506040518060400160405280600681526020017f436861736572000000000000000000000000000000000000000000000000000081525060016040518060400160405280600e81526020017f42726974697368204c6561677565000000000000000000000000000000000000815250620006dc60201b60201c565b620004ff6040518060400160405280600b81526020017f566963746f72204b72756d0000000000000000000000000000000000000000008152506040518060400160405280601281526020017f42756c67617269616e204e6174696f6e616c00000000000000000000000000008152506040518060400160405280600681526020017f5365656b6572000000000000000000000000000000000000000000000000000081525060016040518060400160405280600b81526020017f576f726c6420436c617373000000000000000000000000000000000000000000815250620006dc60201b60201c565b620005cd6040518060a00160405280606c815260200162003d76606c91396040518060400160405280600f81526020017f476f6e646f72204e6174696f6e616c00000000000000000000000000000000008152506040518060400160405280600681526020017f5365656b6572000000000000000000000000000000000000000000000000000081525060006040518060400160405280600b81526020017f576f726c6420436c617373000000000000000000000000000000000000000000815250620006dc60201b60201c565b62000963565b63ffffffff60e01b817bffffffffffffffffffffffffffffffffffffffffffffffffffffffff1916141562000670576040517f08c379a000000000000000000000000000000000000000000000000000000000815260040180806020018281038252601c8152602001807f4552433136353a20696e76616c696420696e746572666163652069640000000081525060200191505060405180910390fd5b6001600080837bffffffffffffffffffffffffffffffffffffffffffffffffffffffff19167bffffffffffffffffffffffffffffffffffffffffffffffffffffffff1916815260200190815260200160002060006101000a81548160ff02191690831515021790555050565b600d60009054906101000a900473ffffffffffffffffffffffffffffffffffffffff1673ffffffffffffffffffffffffffffffffffffffff163373ffffffffffffffffffffffffffffffffffffffff16146200073757600080fd5b6040518060a00160405280868152602001858152602001848152602001831515815260200182815250600e6000600f548152602001908152602001600020600082015181600001908051906020019062000793929190620008b4565b506020820151816001019080519060200190620007b2929190620008b4565b506040820151816002019080519060200190620007d1929190620008b4565b5060608201518160030160006101000a81548160ff021916908315150217905550608082015181600401908051906020019062000810929190620008b4565b50905050600f600081548092919060010191905055505050505050565b828054600181600116156101000203166002900490600052602060002090601f016020900481019282601f106200087057805160ff1916838001178555620008a1565b82800160010185558215620008a1579182015b82811115620008a057825182559160200191906001019062000883565b5b509050620008b091906200093b565b5090565b828054600181600116156101000203166002900490600052602060002090601f016020900481019282601f10620008f757805160ff191683800117855562000928565b8280016001018555821562000928579182015b82811115620009275782518255916020019190600101906200090a565b5b5090506200093791906200093b565b5090565b6200096091905b808211156200095c57600081600090555060010162000942565b5090565b90565b61340380620009736000396000f3fe608060405234801561001057600080fd5b50600436106101735760003560e01c80636e925930116100de578063a071cb7e11610097578063b88d4fde11610071578063b88d4fde14610afa578063c87b56dd14610bff578063e985e9c514610ca6578063f71d96cb14610d2257610173565b8063a071cb7e14610a5e578063a22cb46514610a8c578063a3f67d6d14610adc57610173565b80636e9259301461083757806370a08231146108a5578063818d4b5d146108fd57806395d89b41146109635780639ac7c29c146109e65780639ccffcfa14610a3057610173565b80632f745c59116101305780632f745c59146103a85780633fd973db1461040a57806342842e0e146106965780634f6ccce7146107045780636352211e146107465780636c0360eb146107b457610173565b806301ffc9a71461017857806306fdde03146101dd578063081812fc14610260578063095ea7b3146102ce57806318160ddd1461031c57806323b872dd1461033a575b600080fd5b6101c36004803603602081101561018e57600080fd5b8101908080357bffffffffffffffffffffffffffffffffffffffffffffffffffffffff19169060200190929190505050610f18565b604051808215151515815260200191505060405180910390f35b6101e5610f7f565b6040518080602001828103825283818151815260200191508051906020019080838360005b8381101561022557808201518184015260208101905061020a565b50505050905090810190601f1680156102525780820380516001836020036101000a031916815260200191505b509250505060405180910390f35b61028c6004803603602081101561027657600080fd5b8101908080359060200190929190505050611021565b604051808273ffffffffffffffffffffffffffffffffffffffff1673ffffffffffffffffffffffffffffffffffffffff16815260200191505060405180910390f35b61031a600480360360408110156102e457600080fd5b81019080803573ffffffffffffffffffffffffffffffffffffffff169060200190929190803590602001909291905050506110bc565b005b6103246112a3565b6040518082815260200191505060405180910390f35b6103a66004803603606081101561035057600080fd5b81019080803573ffffffffffffffffffffffffffffffffffffffff169060200190929190803573ffffffffffffffffffffffffffffffffffffffff169060200190929190803590602001909291905050506112b0565b005b6103f4600480360360408110156103be57600080fd5b81019080803573ffffffffffffffffffffffffffffffffffffffff16906020019092919080359060200190929190505050611326565b6040518082815260200191505060405180910390f35b610694600480360360a081101561042057600080fd5b810190808035906020019064010000000081111561043d57600080fd5b82018360208201111561044f57600080fd5b8035906020019184600183028401116401000000008311171561047157600080fd5b91908080601f016020809104026020016040519081016040528093929190818152602001838380828437600081840152601f19601f820116905080830192505050505050509192919290803590602001906401000000008111156104d457600080fd5b8201836020820111156104e657600080fd5b8035906020019184600183028401116401000000008311171561050857600080fd5b91908080601f016020809104026020016040519081016040528093929190818152602001838380828437600081840152601f19601f8201169050808301925050505050505091929192908035906020019064010000000081111561056b57600080fd5b82018360208201111561057d57600080fd5b8035906020019184600183028401116401000000008311171561059f57600080fd5b91908080601f016020809104026020016040519081016040528093929190818152602001838380828437600081840152601f19601f8201169050808301925050505050505091929192908035151590602001909291908035906020019064010000000081111561060e57600080fd5b82018360208201111561062057600080fd5b8035906020019184600183028401116401000000008311171561064257600080fd5b91908080601f016020809104026020016040519081016040528093929190818152602001838380828437600081840152601f19601f8201169050808301925050505050505091929192905050506113e5565b005b610702600480360360608110156106ac57600080fd5b81019080803573ffffffffffffffffffffffffffffffffffffffff169060200190929190803573ffffffffffffffffffffffffffffffffffffffff1690602001909291908035906020019092919050505061152d565b005b6107306004803603602081101561071a57600080fd5b810190808035906020019092919050505061154d565b6040518082815260200191505060405180910390f35b6107726004803603602081101561075c57600080fd5b81019080803590602001909291905050506115cd565b604051808273ffffffffffffffffffffffffffffffffffffffff1673ffffffffffffffffffffffffffffffffffffffff16815260200191505060405180910390f35b6107bc611695565b6040518080602001828103825283818151815260200191508051906020019080838360005b838110156107fc5780820151818401526020810190506107e1565b50505050905090810190601f1680156108295780820380516001836020036101000a031916815260200191505b509250505060405180910390f35b6108636004803603602081101561084d57600080fd5b8101908080359060200190929190505050611737565b604051808273ffffffffffffffffffffffffffffffffffffffff1673ffffffffffffffffffffffffffffffffffffffff16815260200191505060405180910390f35b6108e7600480360360208110156108bb57600080fd5b81019080803573ffffffffffffffffffffffffffffffffffffffff16906020019092919050505061176a565b6040518082815260200191505060405180910390f35b6109496004803603604081101561091357600080fd5b81019080803573ffffffffffffffffffffffffffffffffffffffff1690602001909291908035906020019092919050505061183f565b604051808215151515815260200191505060405180910390f35b61096b6118ab565b6040518080602001828103825283818151815260200191508051906020019080838360005b838110156109ab578082015181840152602081019050610990565b50505050905090810190601f1680156109d85780820380516001836020036101000a031916815260200191505b509250505060405180910390f35b6109ee61194d565b604051808273ffffffffffffffffffffffffffffffffffffffff1673ffffffffffffffffffffffffffffffffffffffff16815260200191505060405180910390f35b610a5c60048036036020811015610a4657600080fd5b8101908080359060200190929190505050611973565b005b610a8a60048036036020811015610a7457600080fd5b8101908080359060200190929190505050611a19565b005b610ada60048036036040811015610aa257600080fd5b81019080803573ffffffffffffffffffffffffffffffffffffffff169060200190929190803515159060200190929190505050611a7e565b005b610ae4611c36565b6040518082815260200191505060405180910390f35b610bfd60048036036080811015610b1057600080fd5b81019080803573ffffffffffffffffffffffffffffffffffffffff169060200190929190803573ffffffffffffffffffffffffffffffffffffffff1690602001909291908035906020019092919080359060200190640100000000811115610b7757600080fd5b820183602082011115610b8957600080fd5b80359060200191846001830284011164010000000083111715610bab57600080fd5b91908080601f016020809104026020016040519081016040528093929190818152602001838380828437600081840152601f19601f820116905080830192505050505050509192919290505050611c3c565b005b610c2b60048036036020811015610c1557600080fd5b8101908080359060200190929190505050611cb4565b6040518080602001828103825283818151815260200191508051906020019080838360005b83811015610c6b578082015181840152602081019050610c50565b50505050905090810190601f168015610c985780820380516001836020036101000a031916815260200191505b509250505060405180910390f35b610d0860048036036040811015610cbc57600080fd5b81019080803573ffffffffffffffffffffffffffffffffffffffff169060200190929190803573ffffffffffffffffffffffffffffffffffffffff169060200190929190505050611eb6565b604051808215151515815260200191505060405180910390f35b610d4e60048036036020811015610d3857600080fd5b8101908080359060200190929190505050611f4a565b60405180806020018060200180602001861515151581526020018060200185810385528a818151815260200191508051906020019080838360005b83811015610da4578082015181840152602081019050610d89565b50505050905090810190601f168015610dd15780820380516001836020036101000a031916815260200191505b50858103845289818151815260200191508051906020019080838360005b83811015610e0a578082015181840152602081019050610def565b50505050905090810190601f168015610e375780820380516001836020036101000a031916815260200191505b50858103835288818151815260200191508051906020019080838360005b83811015610e70578082015181840152602081019050610e55565b50505050905090810190601f168015610e9d5780820380516001836020036101000a031916815260200191505b50858103825286818151815260200191508051906020019080838360005b83811015610ed6578082015181840152602081019050610ebb565b50505050905090810190601f168015610f035780820380516001836020036101000a031916815260200191505b50995050505050505050505060405180910390f35b6000806000837bffffffffffffffffffffffffffffffffffffffffffffffffffffffff19167bffffffffffffffffffffffffffffffffffffffffffffffffffffffff1916815260200190815260200160002060009054906101000a900460ff169050919050565b606060098054600181600116156101000203166002900480601f0160208091040260200160405190810160405280929190818152602001828054600181600116156101000203166002900480156110175780601f10610fec57610100808354040283529160200191611017565b820191906000526020600020905b815481529060010190602001808311610ffa57829003601f168201915b5050505050905090565b600061102c826121ed565b611081576040517f08c379a000000000000000000000000000000000000000000000000000000000815260040180806020018281038252602c8152602001806132d6602c913960400191505060405180910390fd5b6002600083815260200190815260200160002060009054906101000a900473ffffffffffffffffffffffffffffffffffffffff169050919050565b60006110c7826115cd565b90508073ffffffffffffffffffffffffffffffffffffffff168373ffffffffffffffffffffffffffffffffffffffff16141561114e576040517f08c379a000000000000000000000000000000000000000000000000000000000815260040180806020018281038252602181526020018061335a6021913960400191505060405180910390fd5b8073ffffffffffffffffffffffffffffffffffffffff1661116d61225f565b73ffffffffffffffffffffffffffffffffffffffff16148061119c575061119b8161119661225f565b611eb6565b5b6111f1576040517f08c379a000000000000000000000000000000000000000000000000000000000815260040180806020018281038252603881526020018061324b6038913960400191505060405180910390fd5b826002600084815260200190815260200160002060006101000a81548173ffffffffffffffffffffffffffffffffffffffff021916908373ffffffffffffffffffffffffffffffffffffffff160217905550818373ffffffffffffffffffffffffffffffffffffffff168273ffffffffffffffffffffffffffffffffffffffff167f8c5be1e5ebec7d5bd14f71427d1e84f3dd0314c0f7b2291e5b200ac8c7c3b92560405160405180910390a4505050565b6000600780549050905090565b6112c16112bb61225f565b82612267565b611316576040517f08c379a000000000000000000000000000000000000000000000000000000000815260040180806020018281038252603181526020018061337b6031913960400191505060405180910390fd5b61132183838361235b565b505050565b60006113318361176a565b8210611388576040517f08c379a000000000000000000000000000000000000000000000000000000000815260040180806020018281038252602b81526020018061319e602b913960400191505060405180910390fd5b600560008473ffffffffffffffffffffffffffffffffffffffff1673ffffffffffffffffffffffffffffffffffffffff16815260200190815260200160002082815481106113d257fe5b9060005260206000200154905092915050565b600d60009054906101000a900473ffffffffffffffffffffffffffffffffffffffff1673ffffffffffffffffffffffffffffffffffffffff163373ffffffffffffffffffffffffffffffffffffffff161461143f57600080fd5b6040518060a00160405280868152602001858152602001848152602001831515815260200182815250600e6000600f54815260200190815260200160002060008201518160000190805190602001906114999291906130cc565b5060208201518160010190805190602001906114b69291906130cc565b5060408201518160020190805190602001906114d39291906130cc565b5060608201518160030160006101000a81548160ff02191690831515021790555060808201518160040190805190602001906115109291906130cc565b50905050600f600081548092919060010191905055505050505050565b61154883838360405180602001604052806000815250611c3c565b505050565b60006115576112a3565b82106115ae576040517f08c379a000000000000000000000000000000000000000000000000000000000815260040180806020018281038252602c8152602001806133ac602c913960400191505060405180910390fd5b600782815481106115bb57fe5b90600052602060002001549050919050565b6000806001600084815260200190815260200160002060009054906101000a900473ffffffffffffffffffffffffffffffffffffffff169050600073ffffffffffffffffffffffffffffffffffffffff168173ffffffffffffffffffffffffffffffffffffffff16141561168c576040517f08c379a00000000000000000000000000000000000000000000000000000000081526004018080602001828103825260298152602001806132ad6029913960400191505060405180910390fd5b80915050919050565b6060600b8054600181600116156101000203166002900480601f01602080910402602001604051908101604052809291908181526020018280546001816001161561010002031660029004801561172d5780601f106117025761010080835404028352916020019161172d565b820191906000526020600020905b81548152906001019060200180831161171057829003601f168201915b5050505050905090565b60106020528060005260406000206000915054906101000a900473ffffffffffffffffffffffffffffffffffffffff1681565b60008073ffffffffffffffffffffffffffffffffffffffff168273ffffffffffffffffffffffffffffffffffffffff1614156117f1576040517f08c379a000000000000000000000000000000000000000000000000000000000815260040180806020018281038252602a815260200180613283602a913960400191505060405180910390fd5b611838600360008473ffffffffffffffffffffffffffffffffffffffff1673ffffffffffffffffffffffffffffffffffffffff16815260200190815260200160002061237f565b9050919050565b60008273ffffffffffffffffffffffffffffffffffffffff166010600084815260200190815260200160002060009054906101000a900473ffffffffffffffffffffffffffffffffffffffff1673ffffffffffffffffffffffffffffffffffffffff1614905092915050565b6060600a8054600181600116156101000203166002900480601f0160208091040260200160405190810160405280929190818152602001828054600181600116156101000203166002900480156119435780601f1061191857610100808354040283529160200191611943565b820191906000526020600020905b81548152906001019060200180831161192657829003601f168201915b5050505050905090565b600d60009054906101000a900473ffffffffffffffffffffffffffffffffffffffff1681565b3373ffffffffffffffffffffffffffffffffffffffff16611993826115cd565b73ffffffffffffffffffffffffffffffffffffffff16146119b357600080fd5b6010600082815260200190815260200160002060006101000a81549073ffffffffffffffffffffffffffffffffffffffff0219169055611a1633600d60009054906101000a900473ffffffffffffffffffffffffffffffffffffffff16836112b0565b50565b6000339050806010600084815260200190815260200160002060006101000a81548173ffffffffffffffffffffffffffffffffffffffff021916908373ffffffffffffffffffffffffffffffffffffffff160217905550611a7a818361238d565b5050565b611a8661225f565b73ffffffffffffffffffffffffffffffffffffffff168273ffffffffffffffffffffffffffffffffffffffff161415611b27576040517f08c379a00000000000000000000000000000000000000000000000000000000081526004018080602001828103825260198152602001807f4552433732313a20617070726f766520746f2063616c6c65720000000000000081525060200191505060405180910390fd5b8060046000611b3461225f565b73ffffffffffffffffffffffffffffffffffffffff1673ffffffffffffffffffffffffffffffffffffffff16815260200190815260200160002060008473ffffffffffffffffffffffffffffffffffffffff1673ffffffffffffffffffffffffffffffffffffffff16815260200190815260200160002060006101000a81548160ff0219169083151502179055508173ffffffffffffffffffffffffffffffffffffffff16611be161225f565b73ffffffffffffffffffffffffffffffffffffffff167f17307eab39ab6107e8899845ad3d59bd9653f200f220920489ca2b5937696c3183604051808215151515815260200191505060405180910390a35050565b600f5481565b611c4d611c4761225f565b83612267565b611ca2576040517f08c379a000000000000000000000000000000000000000000000000000000000815260040180806020018281038252603181526020018061337b6031913960400191505060405180910390fd5b611cae848484846123ae565b50505050565b6060611cbf826121ed565b611d14576040517f08c379a000000000000000000000000000000000000000000000000000000000815260040180806020018281038252602f81526020018061332b602f913960400191505060405180910390fd5b6060600c60008481526020019081526020016000208054600181600116156101000203166002900480601f016020809104026020016040519081016040528092919081815260200182805460018160011615610100020316600290048015611dbd5780601f10611d9257610100808354040283529160200191611dbd565b820191906000526020600020905b815481529060010190602001808311611da057829003601f168201915b50505050509050600081511415611de65760405180602001604052806000815250915050611eb1565b600b816040516020018083805460018160011615610100020316600290048015611e475780601f10611e25576101008083540402835291820191611e47565b820191906000526020600020905b815481529060010190602001808311611e33575b505082805190602001908083835b60208310611e785780518252602082019150602081019050602083039250611e55565b6001836020036101000a038019825116818451168082178552505050505050905001925050506040516020818303038152906040529150505b919050565b6000600460008473ffffffffffffffffffffffffffffffffffffffff1673ffffffffffffffffffffffffffffffffffffffff16815260200190815260200160002060008373ffffffffffffffffffffffffffffffffffffffff1673ffffffffffffffffffffffffffffffffffffffff16815260200190815260200160002060009054906101000a900460ff16905092915050565b600e602052806000526040600020600091509050806000018054600181600116156101000203166002900480601f016020809104026020016040519081016040528092919081815260200182805460018160011615610100020316600290048015611ff65780601f10611fcb57610100808354040283529160200191611ff6565b820191906000526020600020905b815481529060010190602001808311611fd957829003601f168201915b505050505090806001018054600181600116156101000203166002900480601f0160208091040260200160405190810160405280929190818152602001828054600181600116156101000203166002900480156120945780601f1061206957610100808354040283529160200191612094565b820191906000526020600020905b81548152906001019060200180831161207757829003601f168201915b505050505090806002018054600181600116156101000203166002900480601f0160208091040260200160405190810160405280929190818152602001828054600181600116156101000203166002900480156121325780601f1061210757610100808354040283529160200191612132565b820191906000526020600020905b81548152906001019060200180831161211557829003601f168201915b5050505050908060030160009054906101000a900460ff1690806004018054600181600116156101000203166002900480601f0160208091040260200160405190810160405280929190818152602001828054600181600116156101000203166002900480156121e35780601f106121b8576101008083540402835291602001916121e3565b820191906000526020600020905b8154815290600101906020018083116121c657829003601f168201915b5050505050905085565b6000806001600084815260200190815260200160002060009054906101000a900473ffffffffffffffffffffffffffffffffffffffff169050600073ffffffffffffffffffffffffffffffffffffffff168173ffffffffffffffffffffffffffffffffffffffff161415915050919050565b600033905090565b6000612272826121ed565b6122c7576040517f08c379a000000000000000000000000000000000000000000000000000000000815260040180806020018281038252602c81526020018061321f602c913960400191505060405180910390fd5b60006122d2836115cd565b90508073ffffffffffffffffffffffffffffffffffffffff168473ffffffffffffffffffffffffffffffffffffffff16148061234157508373ffffffffffffffffffffffffffffffffffffffff1661232984611021565b73ffffffffffffffffffffffffffffffffffffffff16145b8061235257506123518185611eb6565b5b91505092915050565b612366838383612420565b612370838261267b565b61237a8282612819565b505050565b600081600001549050919050565b61239782826128e0565b6123a18282612819565b6123aa81612af8565b5050565b6123b984848461235b565b6123c584848484612b44565b61241a576040517f08c379a00000000000000000000000000000000000000000000000000000000081526004018080602001828103825260328152602001806131c96032913960400191505060405180910390fd5b50505050565b8273ffffffffffffffffffffffffffffffffffffffff16612440826115cd565b73ffffffffffffffffffffffffffffffffffffffff16146124ac576040517f08c379a00000000000000000000000000000000000000000000000000000000081526004018080602001828103825260298152602001806133026029913960400191505060405180910390fd5b600073ffffffffffffffffffffffffffffffffffffffff168273ffffffffffffffffffffffffffffffffffffffff161415612532576040517f08c379a00000000000000000000000000000000000000000000000000000000081526004018080602001828103825260248152602001806131fb6024913960400191505060405180910390fd5b61253b81612e80565b612582600360008573ffffffffffffffffffffffffffffffffffffffff1673ffffffffffffffffffffffffffffffffffffffff168152602001908152602001600020612f3e565b6125c9600360008473ffffffffffffffffffffffffffffffffffffffff1673ffffffffffffffffffffffffffffffffffffffff168152602001908152602001600020612f61565b816001600083815260200190815260200160002060006101000a81548173ffffffffffffffffffffffffffffffffffffffff021916908373ffffffffffffffffffffffffffffffffffffffff160217905550808273ffffffffffffffffffffffffffffffffffffffff168473ffffffffffffffffffffffffffffffffffffffff167fddf252ad1be2c89b69c2b068fc378daa952ba7f163c4a11628f55a4df523b3ef60405160405180910390a4505050565b60006126d36001600560008673ffffffffffffffffffffffffffffffffffffffff1673ffffffffffffffffffffffffffffffffffffffff16815260200190815260200160002080549050612f7790919063ffffffff16565b90506000600660008481526020019081526020016000205490508181146127c0576000600560008673ffffffffffffffffffffffffffffffffffffffff1673ffffffffffffffffffffffffffffffffffffffff168152602001908152602001600020838154811061274057fe5b9060005260206000200154905080600560008773ffffffffffffffffffffffffffffffffffffffff1673ffffffffffffffffffffffffffffffffffffffff168152602001908152602001600020838154811061279857fe5b9060005260206000200181905550816006600083815260200190815260200160002081905550505b600560008573ffffffffffffffffffffffffffffffffffffffff1673ffffffffffffffffffffffffffffffffffffffff168152602001908152602001600020805480919060019003612812919061314c565b5050505050565b600560008373ffffffffffffffffffffffffffffffffffffffff1673ffffffffffffffffffffffffffffffffffffffff168152602001908152602001600020805490506006600083815260200190815260200160002081905550600560008373ffffffffffffffffffffffffffffffffffffffff1673ffffffffffffffffffffffffffffffffffffffff1681526020019081526020016000208190806001815401808255809150509060018203906000526020600020016000909192909190915055505050565b600073ffffffffffffffffffffffffffffffffffffffff168273ffffffffffffffffffffffffffffffffffffffff161415612983576040517f08c379a00000000000000000000000000000000000000000000000000000000081526004018080602001828103825260208152602001807f4552433732313a206d696e7420746f20746865207a65726f206164647265737381525060200191505060405180910390fd5b61298c816121ed565b156129ff576040517f08c379a000000000000000000000000000000000000000000000000000000000815260040180806020018281038252601c8152602001807f4552433732313a20746f6b656e20616c7265616479206d696e7465640000000081525060200191505060405180910390fd5b816001600083815260200190815260200160002060006101000a81548173ffffffffffffffffffffffffffffffffffffffff021916908373ffffffffffffffffffffffffffffffffffffffff160217905550612a98600360008473ffffffffffffffffffffffffffffffffffffffff1673ffffffffffffffffffffffffffffffffffffffff168152602001908152602001600020612f61565b808273ffffffffffffffffffffffffffffffffffffffff16600073ffffffffffffffffffffffffffffffffffffffff167fddf252ad1be2c89b69c2b068fc378daa952ba7f163c4a11628f55a4df523b3ef60405160405180910390a45050565b6007805490506008600083815260200190815260200160002081905550600781908060018154018082558091505090600182039060005260206000200160009091929091909150555050565b6000612b658473ffffffffffffffffffffffffffffffffffffffff16612fc1565b612b725760019050612e78565b600060608573ffffffffffffffffffffffffffffffffffffffff168673ffffffffffffffffffffffffffffffffffffffff1663150b7a02905060e01b612bb661225f565b898888604051602401808573ffffffffffffffffffffffffffffffffffffffff1673ffffffffffffffffffffffffffffffffffffffff1681526020018473ffffffffffffffffffffffffffffffffffffffff1673ffffffffffffffffffffffffffffffffffffffff16815260200183815260200180602001828103825283818151815260200191508051906020019080838360005b83811015612c66578082015181840152602081019050612c4b565b50505050905090810190601f168015612c935780820380516001836020036101000a031916815260200191505b5095505050505050604051602081830303815290604052907bffffffffffffffffffffffffffffffffffffffffffffffffffffffff19166020820180517bffffffffffffffffffffffffffffffffffffffffffffffffffffffff83818316178352505050506040518082805190602001908083835b60208310612d2b5780518252602082019150602081019050602083039250612d08565b6001836020036101000a0380198251168184511680821785525050505050509050019150506000604051808303816000865af19150503d8060008114612d8d576040519150601f19603f3d011682016040523d82523d6000602084013e612d92565b606091505b509150915081612e0057600081511115612daf5780518082602001fd5b6040517f08c379a00000000000000000000000000000000000000000000000000000000081526004018080602001828103825260328152602001806131c96032913960400191505060405180910390fd5b6000818060200190516020811015612e1757600080fd5b8101908080519060200190929190505050905063150b7a0260e01b7bffffffffffffffffffffffffffffffffffffffffffffffffffffffff1916817bffffffffffffffffffffffffffffffffffffffffffffffffffffffff19161493505050505b949350505050565b600073ffffffffffffffffffffffffffffffffffffffff166002600083815260200190815260200160002060009054906101000a900473ffffffffffffffffffffffffffffffffffffffff1673ffffffffffffffffffffffffffffffffffffffff1614612f3b5760006002600083815260200190815260200160002060006101000a81548173ffffffffffffffffffffffffffffffffffffffff021916908373ffffffffffffffffffffffffffffffffffffffff1602179055505b50565b612f5660018260000154612f7790919063ffffffff16565b816000018190555050565b6001816000016000828254019250508190555050565b6000612fb983836040518060400160405280601e81526020017f536166654d6174683a207375627472616374696f6e206f766572666c6f77000081525061300c565b905092915050565b60008060007fc5d2460186f7233c927e7db2dcc703c0e500b653ca82273b7bfad8045d85a47060001b9050833f915080821415801561300357506000801b8214155b92505050919050565b60008383111582906130b9576040517f08c379a00000000000000000000000000000000000000000000000000000000081526004018080602001828103825283818151815260200191508051906020019080838360005b8381101561307e578082015181840152602081019050613063565b50505050905090810190601f1680156130ab5780820380516001836020036101000a031916815260200191505b509250505060405180910390fd5b5060008385039050809150509392505050565b828054600181600116156101000203166002900490600052602060002090601f016020900481019282601f1061310d57805160ff191683800117855561313b565b8280016001018555821561313b579182015b8281111561313a57825182559160200191906001019061311f565b5b5090506131489190613178565b5090565b815481835581811115613173578183600052602060002091820191016131729190613178565b5b505050565b61319a91905b8082111561319657600081600090555060010161317e565b5090565b9056fe455243373231456e756d657261626c653a206f776e657220696e646578206f7574206f6620626f756e64734552433732313a207472616e7366657220746f206e6f6e20455243373231526563656976657220696d706c656d656e7465724552433732313a207472616e7366657220746f20746865207a65726f20616464726573734552433732313a206f70657261746f7220717565727920666f72206e6f6e6578697374656e7420746f6b656e4552433732313a20617070726f76652063616c6c6572206973206e6f74206f776e6572206e6f7220617070726f76656420666f7220616c6c4552433732313a2062616c616e636520717565727920666f7220746865207a65726f20616464726573734552433732313a206f776e657220717565727920666f72206e6f6e6578697374656e7420746f6b656e4552433732313a20617070726f76656420717565727920666f72206e6f6e6578697374656e7420746f6b656e4552433732313a207472616e73666572206f6620746f6b656e2074686174206973206e6f74206f776e4552433732314d657461646174613a2055524920717565727920666f72206e6f6e6578697374656e7420746f6b656e4552433732313a20617070726f76616c20746f2063757272656e74206f776e65724552433732313a207472616e736665722063616c6c6572206973206e6f74206f776e6572206e6f7220617070726f766564455243373231456e756d657261626c653a20676c6f62616c20696e646578206f7574206f6620626f756e6473a165627a7a72305820c7cc6bfbdc8d28aa511a293c7f558471dada335e904f421e8f0b7c4fae940ca20029417261676f726e20736f6e206f662041726174686f726e2c2063616c6c656420456c65737361722c2074686520456c6673746f6e652c2044c3ba6e6164616e2c207468652068656972206f66204973696c64757220456c656e64696c277320736f6e206f6620476f6e646f72",
  "source": "pragma solidity ^0.5.0;\r\nimport \"@openzeppelin/contracts/token/ERC721/ERC721Full.sol\";\r\n\r\ncontract QuidditchPlayer is ERC721Full{\r\n  struct Player {\r\n    string name;\r\n    string team;\r\n    string position;\r\n    bool cannon;\r\n    string category;\r\n  }\r\n\r\n  // dapp owner\r\n  address public dappOwner;\r\n\r\n  // Quidditch players created in the systems\r\n  mapping(uint => Player) public players;\r\n  uint public playersCount;\r\n\r\n  mapping(uint => address) public playerIndexToUser;\r\n\r\n  constructor() ERC721Full(\"QuidditchPlayer\", \"QP\") public {\r\n    dappOwner = msg.sender;\r\n    createPlayer(\"Harry Potter\", \"Gryffindor\", \"Seeker\", true, \"Hogwarts\");\r\n    createPlayer(\"Robert Guderian\", \"Bisons\", \"Keeper\", false, \"Canadian League\");\r\n    createPlayer(\"Ginny Potter\", \"Holyhead Harpies\", \"Chaser\", true, \"British League\");\r\n    createPlayer(\"Victor Krum\", \"Bulgarian National\", \"Seeker\", true, \"World Class\");\r\n    createPlayer(\"Aragorn son of Arathorn, called Elessar, the Elfstone, Dnadan, the heir of Isildur Elendil's son of Gondor\", \"Gondor National\", \"Seeker\", false, \"World Class\");\r\n  }\r\n\r\n  function createPlayer(\r\n    string memory _name,\r\n    string memory _team,\r\n    string memory _position,\r\n    bool _cannon,\r\n    string memory _category\r\n    ) public {\r\n    require(msg.sender == dappOwner);\r\n    players[playersCount] = Player(_name, _team, _position, _cannon, _category);\r\n    playersCount++;\r\n  }\r\n\r\n  function addPlayerToUser(uint _playerId) public {\r\n    address _user = msg.sender;\r\n    playerIndexToUser[_playerId] = _user;\r\n    _mint(_user, _playerId);\r\n  }\r\n\r\n  function owns(address _claimant, uint _playerId) public returns (bool) {\r\n    return playerIndexToUser[_playerId] == _claimant;\r\n  }\r\n\r\n  function sellPlayer(uint _playerId) public {\r\n    require(ownerOf(_playerId) == msg.sender);\r\n    delete playerIndexToUser[_playerId];\r\n    transferFrom(msg.sender, dappOwner, _playerId);\r\n  }\r\n}\r\n",
  "sourcePath": "C:/Users/Chris/Documents/GitHub/crypto-quidditch/src/contracts/QuidditchPlayer.sol",
  "compiler": {
    "name": "solc",
    "version": "0.5.7+commit.6da8b019.Emscripten.clang"
  },
  "schemaVersion": "3.2.3",
  "updatedAt": "2020-08-15T03:30:27.092Z",
  "networkType": "ethereum",
  "devdoc": {
    "methods": {
      "approve(address,uint256)": {
        "details": "Approves another address to transfer the given token ID The zero address indicates there is no approved address. There can only be one approved address per token at a given time. Can only be called by the token owner or an approved operator.",
        "params": {
          "to": "address to be approved for the given token ID",
          "tokenId": "uint256 ID of the token to be approved"
        }
      },
      "balanceOf(address)": {
        "details": "Gets the balance of the specified address.",
        "params": {
          "owner": "address to query the balance of"
        },
        "return": "uint256 representing the amount owned by the passed address"
      },
      "baseURI()": {
        "details": "Returns the base URI set via {_setBaseURI}. This will be automatically added as a preffix in {tokenURI} to each token's URI, when they are non-empty.    * _Available since v2.5.0._"
      },
      "getApproved(uint256)": {
        "details": "Gets the approved address for a token ID, or zero if no address set Reverts if the token ID does not exist.",
        "params": {
          "tokenId": "uint256 ID of the token to query the approval of"
        },
        "return": "address currently approved for the given token ID"
      },
      "isApprovedForAll(address,address)": {
        "details": "Tells whether an operator is approved by a given owner.",
        "params": {
          "operator": "operator address which you want to query the approval of",
          "owner": "owner address which you want to query the approval of"
        },
        "return": "bool whether the given operator is approved by the given owner"
      },
      "name()": {
        "details": "Gets the token name.",
        "return": "string representing the token name"
      },
      "ownerOf(uint256)": {
        "details": "Gets the owner of the specified token ID.",
        "params": {
          "tokenId": "uint256 ID of the token to query the owner of"
        },
        "return": "address currently marked as the owner of the given token ID"
      },
      "safeTransferFrom(address,address,uint256)": {
        "details": "Safely transfers the ownership of a given token ID to another address If the target address is a contract, it must implement {IERC721Receiver-onERC721Received}, which is called upon a safe transfer, and return the magic value `bytes4(keccak256(\"onERC721Received(address,address,uint256,bytes)\"))`; otherwise, the transfer is reverted. Requires the msg.sender to be the owner, approved, or operator",
        "params": {
          "from": "current owner of the token",
          "to": "address to receive the ownership of the given token ID",
          "tokenId": "uint256 ID of the token to be transferred"
        }
      },
      "safeTransferFrom(address,address,uint256,bytes)": {
        "details": "Safely transfers the ownership of a given token ID to another address If the target address is a contract, it must implement {IERC721Receiver-onERC721Received}, which is called upon a safe transfer, and return the magic value `bytes4(keccak256(\"onERC721Received(address,address,uint256,bytes)\"))`; otherwise, the transfer is reverted. Requires the _msgSender() to be the owner, approved, or operator",
        "params": {
          "_data": "bytes data to send along with a safe transfer check",
          "from": "current owner of the token",
          "to": "address to receive the ownership of the given token ID",
          "tokenId": "uint256 ID of the token to be transferred"
        }
      },
      "setApprovalForAll(address,bool)": {
        "details": "Sets or unsets the approval of a given operator An operator is allowed to transfer all tokens of the sender on their behalf.",
        "params": {
          "approved": "representing the status of the approval to be set",
          "to": "operator address to set the approval"
        }
      },
      "supportsInterface(bytes4)": {
        "details": "See {IERC165-supportsInterface}.     * Time complexity O(1), guaranteed to always use less than 30 000 gas."
      },
      "symbol()": {
        "details": "Gets the token symbol.",
        "return": "string representing the token symbol"
      },
      "tokenByIndex(uint256)": {
        "details": "Gets the token ID at a given index of all the tokens in this contract Reverts if the index is greater or equal to the total number of tokens.",
        "params": {
          "index": "uint256 representing the index to be accessed of the tokens list"
        },
        "return": "uint256 token ID at the given index of the tokens list"
      },
      "tokenOfOwnerByIndex(address,uint256)": {
        "details": "Gets the token ID at a given index of the tokens list of the requested owner.",
        "params": {
          "index": "uint256 representing the index to be accessed of the requested tokens list",
          "owner": "address owning the tokens list to be accessed"
        },
        "return": "uint256 token ID at the given index of the tokens list owned by the requested address"
      },
      "tokenURI(uint256)": {
        "details": "Returns the URI for a given token ID. May return an empty string.     * If the token's URI is non-empty and a base URI was set (via {_setBaseURI}), it will be added to the token ID's URI as a prefix.     * Reverts if the token ID does not exist."
      },
      "totalSupply()": {
        "details": "Gets the total amount of tokens stored by the contract.",
        "return": "uint256 representing the total amount of tokens"
      },
      "transferFrom(address,address,uint256)": {
        "details": "Transfers the ownership of a given token ID to another address. Usage of this method is discouraged, use {safeTransferFrom} whenever possible. Requires the msg.sender to be the owner, approved, or operator.",
        "params": {
          "from": "current owner of the token",
          "to": "address to receive the ownership of the given token ID",
          "tokenId": "uint256 ID of the token to be transferred"
        }
      }
    }
  },
  "userdoc": {
    "methods": {}
  }
}